:100000000C945D000C9485000C9485000C94850084
:100010000C9485000C9485000C9485000C9485004C
:100020000C9485000C9485000C9485000C9485003C
:100030000C9485000C9485000C9485000C9485002C
:100040000C9411010C9485000C9485000C9485008F
:100050000C9485000C9485000C9485000C9485000C
:100060000C9485000C94850000000008000201003B
:100070000003040700000000000000000102040863
:100080001020408001020408102001020408102002
:10009000040404040404040402020202020203032E
:1000A0000303030300000000250028002B000000CC
:1000B0000000240027002A00A80011241FBECFEF53
:1000C000D8E0DEBFCDBF11E0A0E0B1E0E8E5F8E0A8
:1000D00002C005900D92AA31B107D9F721E0AAE13B
:1000E000B1E001C01D92AB33B207E1F710E0CDE5FE
:1000F000D0E004C02197FE010E942404CC35D10732
:10010000C9F70E94BC000C942A040C94000020E063
:1001100042E060E18AE191E00E94B40260E071E0B7
:100120008AE191E00C940F018AE191E00E94790349
:1001300068EB7BE080E090E00E9480018AE191E042
:100140000E94800368EB7BE080E090E00C948001EB
:10015000CF92EF920F9382E0C82E93E0E92E04E055
:1001600025E04BE06CE08AE191E00E9459030F9199
:10017000EF90CF90089508950E94C7010E94BB00A0
:100180000E948700C0E0D0E00E9494002097E1F335
:100190000E940000F9CF80E090E008950895CF928A
:1001A000DF92EF92FF920F931F93CF93DF936C0137
:1001B0007A018B01C0E0D0E0CE15DF0589F0D801CF
:1001C0006D918D01D601ED91FC910190F081E02DB2
:1001D000C6010995892B11F47E0102C02196ECCF4E
:1001E000C701DF91CF911F910F91FF90EF90DF90AA
:1001F000CF9008956115710579F0FB010190002001
:10020000E9F73197AF01461B570BDC01ED91FC91EB
:100210000280F381E02D099480E090E008950C9431
:10022000FA001F920F920FB60F9211242F933F9353
:100230008F939F93AF93BF9380913301909134013B
:10024000A0913501B09136013091320123E0230FA6
:100250002D3720F40196A11DB11D05C026E8230FFE
:100260000296A11DB11D209332018093330190931A
:100270003401A0933501B0933601809137019091FC
:100280003801A0913901B0913A010196A11DB11D2B
:100290008093370190933801A0933901B0933A01CC
:1002A000BF91AF919F918F913F912F910F900FBE72
:1002B0000F901F9018953FB7F89480913701909157
:1002C0003801A0913901B0913A0126B5A89B05C02B
:1002D0002F3F19F00196A11DB11D3FBFBA2FA92FC5
:1002E000982F8827820F911DA11DB11DBC01CD0142
:1002F00042E0660F771F881F991F4A95D1F708952E
:100300008F929F92AF92BF92CF92DF92EF92FF9225
:100310006B017C010E945B014B015C01C114D104A3
:10032000E104F10401F10E948E030E945B01DC01F3
:10033000CB0188199909AA09BB09883E9340A105F8
:10034000B10560F321E0C21AD108E108F10888EE96
:10035000880E83E0981EA11CB11CC114D104E104D5
:10036000F10419F7DBCFFF90EF90DF90CF90BF90B3
:10037000AF909F908F9008958230910538F0880F4C
:10038000991F880F991F05970197F1F708957894A1
:1003900084B5826084BD84B5816084BD85B582608A
:1003A00085BD85B5816085BDEEE6F0E08081816028
:1003B0008083E1E8F0E01082808182608083808128
:1003C00081608083E0E8F0E0808181608083E1EB00
:1003D000F0E0808184608083E0EBF0E080818160E8
:1003E0008083EAE7F0E0808184608083808182609E
:1003F0008083808181608083808180688083109287
:10040000C1000895CF93DF93EC0160E08E810E94DC
:10041000F40381E090E00E94BC0161E08E810E94C3
:10042000F40381E090E00E94BC0160E08E810E94B4
:10043000F40384E690E0DF91CF910C94BC01CF925D
:10044000DF92EF92FF920F931F93CF93DF937C0184
:100450006C0187E0C80ED11CC0E0D0E0062F10E090
:10046000B8010C2E02C0759567950A94E2F7617089
:10047000F60181916F010E94F4032196C430D105E9
:1004800079F7C701DF91CF911F910F91FF90EF9006
:10049000DF90CF900C940202CF92DF92EF92FF9206
:1004A0000F931F93CF93DF937C016C0187E0C80EFD
:1004B000D11CC0E0D0E0062F10E0B8010C2E02C025
:1004C000759567950A94E2F76170F60181916F0165
:1004D0000E94F4032196C830D10579F7C701DF9156
:1004E000CF911F910F91FF90EF90DF90CF900C94E0
:1004F00002021F93CF93DF93EC01162F642F8C81A0
:100500000E94F4038D818F3F19F060E00E94F40394
:100510008F85612F84FF06C0CE01DF91CF911F919F
:100520000C944C0270E084E0759567958A95E1F72C
:10053000CE010E941F02612FCE01DF91CF911F914A
:100540000C941F0240E00C94790261E00E94A20228
:1005500080ED97E00C94BC01FC016089262F24609B
:10056000208B6C600C94A202EF92FF920F931F936A
:10057000CF93DF93EC01423018F08F8588608F872E
:100580004B8B1C8A80E48D8B6E8B70E0605C7F4FA0
:100590006F8B222329F0413019F48F8584608F8777
:1005A00061E08C810E94B8038D818F3F19F061E07A
:1005B0000E94B80361E08E810E94B8037E0187E04B
:1005C000E80EF11C00E010E08F8584FD03C084E09C
:1005D00090E002C088E090E0081719074CF461E051
:1005E000F70181917F010E94B8030F5F1F4FECCF8D
:1005F00080E593EC0E94BC0160E08C810E94F403D2
:1006000060E08E810E94F4038D818F3F19F060E0DD
:100610000E94F4036F8564FD1DC063E0CE010E945B
:100620001F0284E991E10E94BC0163E0CE010E94B7
:100630001F0284E991E10E94BC0163E0CE010E94A7
:100640001F0286E990E00E94BC0162E0CE010E9498
:100650001F0216C06062CE010E94A20284E991E1ED
:100660000E94BC016F856062CE010E94A20286E9F1
:1006700090E00E94BC016F856062CE010E94A202E0
:100680006F856062CE010E94A20284E0888BCE0159
:100690000E94AC02CE010E94A50282E0898B66E036
:1006A000CE01DF91CF911F910F91FF90EF900C94AD
:1006B000A202CF92EF920F93FC011382128282E189
:1006C00091E09183808364838FEF858346832783C2
:1006D0000087E186C28613861486158616861786DD
:1006E00020E041E060E1CF010F91EF90CF900C94BA
:1006F000B402FC0160896E7F608B68600C94A2027A
:10070000FC016089262F2160208B69600C94A20275
:1007100041E00E94790281E090E0089508958330DD
:1007200081F028F4813099F08230A1F0089587306B
:10073000A9F08830B9F08430D1F4809180008F7DA9
:1007400003C0809180008F7780938000089584B5E6
:100750008F7702C084B58F7D84BD08958091B000ED
:100760008F7703C08091B0008F7D8093B000089593
:10077000CF93DF9390E0FC01E458FF4F2491FC01FC
:10078000E057FF4F8491882361F190E0880F991F13
:10079000FC01E255FF4FC591D491FC01EC55FF4F90
:1007A000A591B491611109C09FB7F89488812095F3
:1007B00082238883EC912E230BC0623061F49FB7B3
:1007C000F8943881822F809583238883EC912E2B97
:1007D0002C939FBF06C08FB7F894E8812E2B2883F7
:1007E0008FBFDF91CF9108951F93CF93DF93282F71
:1007F00030E0F901E859FF4F8491F901E458FF4FC7
:10080000D491F901E057FF4FC491CC23C9F0162FC2
:1008100081110E948F03EC2FF0E0EE0FFF1FEC55CB
:10082000FF4FA591B4918FB7F894111105C09C9119
:10083000ED2FE095E92302C0EC91ED2BEC938FBFF7
:10084000DF91CF911F910895EE0FFF1F0590F49156
:08085000E02D0994F894FFCF9C
:1008580068656C6C6F2C20776F726C6421000000E7
:0A08680000008803CF00CB00CE0093
:00000001FF
